{
  "_format": "hh-sol-artifact-1",
  "contractName": "DevToken",
  "sourceName": "contracts/DevToken.sol",
  "abi": [
    {
      "inputs": [],
      "stateMutability": "nonpayable",
      "type": "constructor"
    },
    {
      "anonymous": false,
      "inputs": [
        {
          "indexed": false,
          "internalType": "address",
          "name": "sender",
          "type": "address"
        },
        {
          "indexed": false,
          "internalType": "address",
          "name": "receiver",
          "type": "address"
        },
        {
          "indexed": false,
          "internalType": "uint256",
          "name": "numTokens",
          "type": "uint256"
        }
      ],
      "name": "Sent",
      "type": "event"
    },
    {
      "inputs": [],
      "name": "hello",
      "outputs": [
        {
          "internalType": "string",
          "name": "",
          "type": "string"
        }
      ],
      "stateMutability": "pure",
      "type": "function"
    },
    {
      "inputs": [
        {
          "internalType": "address",
          "name": "receiver",
          "type": "address"
        },
        {
          "internalType": "uint256",
          "name": "numTokens",
          "type": "uint256"
        }
      ],
      "name": "mintToken",
      "outputs": [],
      "stateMutability": "nonpayable",
      "type": "function"
    },
    {
      "inputs": [],
      "name": "minter",
      "outputs": [
        {
          "internalType": "address",
          "name": "",
          "type": "address"
        }
      ],
      "stateMutability": "view",
      "type": "function"
    },
    {
      "inputs": [
        {
          "internalType": "address",
          "name": "receiver",
          "type": "address"
        },
        {
          "internalType": "uint256",
          "name": "numTokens",
          "type": "uint256"
        }
      ],
      "name": "send",
      "outputs": [],
      "stateMutability": "nonpayable",
      "type": "function"
    }
  ],
  "bytecode": "0x6080604052348015600f57600080fd5b50336000806101000a81548173ffffffffffffffffffffffffffffffffffffffff021916908373ffffffffffffffffffffffffffffffffffffffff1602179055506105d78061005f6000396000f3fe608060405234801561001057600080fd5b506004361061004c5760003560e01c8063075461721461005157806319ff1d211461006f57806379c650681461008d578063d0679d34146100a9575b600080fd5b6100596100c5565b6040516100669190610350565b60405180910390f35b6100776100e9565b60405161008491906103fb565b60405180910390f35b6100a760048036038101906100a29190610484565b610126565b005b6100c360048036038101906100be9190610484565b6101d8565b005b60008054906101000a900473ffffffffffffffffffffffffffffffffffffffff1681565b60606040518060400160405280601c81526020017f48656c6c6f2066726f6d20446576546f6b656e20636f6e747261637400000000815250905090565b60008054906101000a900473ffffffffffffffffffffffffffffffffffffffff1673ffffffffffffffffffffffffffffffffffffffff163373ffffffffffffffffffffffffffffffffffffffff161461017e57600080fd5b80600160008473ffffffffffffffffffffffffffffffffffffffff1673ffffffffffffffffffffffffffffffffffffffff16815260200190815260200160002060008282546101cd91906104f3565b925050819055505050565b80600160003373ffffffffffffffffffffffffffffffffffffffff1673ffffffffffffffffffffffffffffffffffffffff16815260200190815260200160002054101561022457600080fd5b80600160008473ffffffffffffffffffffffffffffffffffffffff1673ffffffffffffffffffffffffffffffffffffffff168152602001908152602001600020600082825461027391906104f3565b9250508190555080600160003373ffffffffffffffffffffffffffffffffffffffff1673ffffffffffffffffffffffffffffffffffffffff16815260200190815260200160002060008282546102c99190610527565b925050819055507f3990db2d31862302a685e8086b5755072a6e2b5b780af1ee81ece35ee3cd33453383836040516103039392919061056a565b60405180910390a15050565b600073ffffffffffffffffffffffffffffffffffffffff82169050919050565b600061033a8261030f565b9050919050565b61034a8161032f565b82525050565b60006020820190506103656000830184610341565b92915050565b600081519050919050565b600082825260208201905092915050565b60005b838110156103a557808201518184015260208101905061038a565b60008484015250505050565b6000601f19601f8301169050919050565b60006103cd8261036b565b6103d78185610376565b93506103e7818560208601610387565b6103f0816103b1565b840191505092915050565b6000602082019050818103600083015261041581846103c2565b905092915050565b600080fd5b61042b8161032f565b811461043657600080fd5b50565b60008135905061044881610422565b92915050565b6000819050919050565b6104618161044e565b811461046c57600080fd5b50565b60008135905061047e81610458565b92915050565b6000806040838503121561049b5761049a61041d565b5b60006104a985828601610439565b92505060206104ba8582860161046f565b9150509250929050565b7f4e487b7100000000000000000000000000000000000000000000000000000000600052601160045260246000fd5b60006104fe8261044e565b91506105098361044e565b9250828201905080821115610521576105206104c4565b5b92915050565b60006105328261044e565b915061053d8361044e565b9250828203905081811115610555576105546104c4565b5b92915050565b6105648161044e565b82525050565b600060608201905061057f6000830186610341565b61058c6020830185610341565b610599604083018461055b565b94935050505056fea26469706673582212203b99aaf2d3d14ffbf782458a62a66a104dbfba3172202f1eb6057e7439cae60a64736f6c634300081b0033",
  "linkReferences": {},
  "deployedLinkReferences": {}
}